{
  "contractName": "LoRa",
  "abi": [
    {
      "constant": false,
      "inputs": [
        {
          "internalType": "uint256",
          "name": "_sensorId",
          "type": "uint256"
        },
        {
          "internalType": "uint256",
          "name": "_temperature",
          "type": "uint256"
        },
        {
          "internalType": "uint256",
          "name": "_stress",
          "type": "uint256"
        }
      ],
      "name": "setInput",
      "outputs": [],
      "payable": false,
      "stateMutability": "nonpayable",
      "type": "function"
    },
    {
      "constant": true,
      "inputs": [
        {
          "internalType": "uint256",
          "name": "_sensorId",
          "type": "uint256"
        }
      ],
      "name": "getOutput",
      "outputs": [
        {
          "internalType": "uint256[]",
          "name": "",
          "type": "uint256[]"
        },
        {
          "internalType": "uint256[]",
          "name": "",
          "type": "uint256[]"
        },
        {
          "internalType": "uint256[]",
          "name": "",
          "type": "uint256[]"
        },
        {
          "internalType": "uint256",
          "name": "",
          "type": "uint256"
        },
        {
          "internalType": "bytes32[]",
          "name": "",
          "type": "bytes32[]"
        }
      ],
      "payable": false,
      "stateMutability": "view",
      "type": "function"
    },
    {
      "constant": false,
      "inputs": [
        {
          "internalType": "uint256",
          "name": "_sensorId",
          "type": "uint256"
        },
        {
          "internalType": "bytes32",
          "name": "_hash",
          "type": "bytes32"
        }
      ],
      "name": "setHash",
      "outputs": [],
      "payable": false,
      "stateMutability": "nonpayable",
      "type": "function"
    }
  ],
  "bytecode": "0x608060405234801561001057600080fd5b50610569806100206000396000f3fe608060405234801561001057600080fd5b50600436106100415760003560e01c806317861f87146100465780636cde6380146101a8578063bae7e9e5146101e0575b600080fd5b6100726004803603602081101561005c57600080fd5b8101908080359060200190929190505050610222565b604051808060200180602001806020018681526020018060200185810385528a818151815260200191508051906020019060200280838360005b838110156100c75780820151818401526020810190506100ac565b50505050905001858103845289818151815260200191508051906020019060200280838360005b838110156101095780820151818401526020810190506100ee565b50505050905001858103835288818151815260200191508051906020019060200280838360005b8381101561014b578082015181840152602081019050610130565b50505050905001858103825286818151815260200191508051906020019060200280838360005b8381101561018d578082015181840152602081019050610172565b50505050905001995050505050505050505060405180910390f35b6101de600480360360408110156101be57600080fd5b8101908080359060200190929190803590602001909291905050506103f0565b005b610220600480360360608110156101f657600080fd5b81019080803590602001909291908035906020019092919080359060200190929190505050610433565b005b6060806060600060606000808781526020019081526020016000206001016000808881526020019081526020016000206002016000808981526020019081526020016000206003016000808a8152602001908152602001600020600401546000808b8152602001908152602001600020600501848054806020026020016040519081016040528092919081815260200182805480156102e057602002820191906000526020600020905b8154815260200190600101908083116102cc575b505050505094508380548060200260200160405190810160405280929190818152602001828054801561033257602002820191906000526020600020905b81548152602001906001019080831161031e575b505050505093508280548060200260200160405190810160405280929190818152602001828054801561038457602002820191906000526020600020905b815481526020019060010190808311610370575b50505050509250808054806020026020016040519081016040528092919081815260200182805480156103d657602002820191906000526020600020905b8154815260200190600101908083116103c2575b505050505090509450945094509450945091939590929450565b6000808381526020019081526020016000206005018190806001815401808255809150509060018203906000526020600020016000909192909190915055505050565b82600080858152602001908152602001600020600001819055506000808481526020019081526020016000206001018290806001815401808255809150509060018203906000526020600020016000909192909190915055506000808481526020019081526020016000206002018190806001815401808255809150509060018203906000526020600020016000909192909190915055506000808481526020019081526020016000206003014290806001815401808255809150509060018203906000526020600020016000909192909190915055506000808481526020019081526020016000206004016000815480929190600101919050555050505056fea265627a7a7231582091630cf6160a506de3e99a0353c62b42328d3d7024240a9e4ee473dd6fe07e9964736f6c63430005100032",
  "source": "pragma solidity ^0.5.12;\r\n\r\ncontract LoRa{\r\n    \r\n\r\n    struct  sensor{\r\n        uint sensorId;\r\n        uint[] temperature;\r\n        uint[] stress;\r\n        uint[] time;\r\n        uint count;\r\n        bytes32[] blockhash;\r\n    }\r\n    \r\n    mapping (uint => sensor) private sensors;\r\n    \r\n    \r\n    \r\n    \r\n    function setInput (uint _sensorId, uint _temperature, uint _stress) public{\r\n        sensors[_sensorId].sensorId=_sensorId;\r\n        sensors[_sensorId].temperature.push(_temperature);\r\n        sensors[_sensorId].stress.push(_stress);\r\n        sensors[_sensorId].time.push(block.timestamp);\r\n        sensors[_sensorId].count++;\r\n       // sensors[_sensorId]=sensor(_sensorId, sensor.push(_temperature), sensor.push(_stress));\r\n       // sensors[_sensorId]=sensor(_sensorId,_temperature, _stress);\r\n    }\r\n    \r\n     \r\n    function getOutput (uint _sensorId) public view returns (uint[] memory, uint[] memory, uint[] memory, uint, bytes32[] memory)\r\n    {\r\n       \r\n        return (sensors[_sensorId].temperature, sensors[_sensorId].stress, sensors[_sensorId].time,\r\n         sensors[_sensorId].count, sensors[_sensorId].blockhash);\r\n        \r\n    }\r\n    \r\n    function setHash (uint _sensorId, bytes32  _hash) public\r\n    {\r\n        sensors[_sensorId].blockhash.push(_hash);\r\n    }\r\n\r\n}\r\n",
  "sourcePath": "C:/Users/Hank Bot/Desktop/Internship/Internship01072020/LoRa2/contracts/LoRa1.sol",
  "compiler": {
    "name": "solc",
    "version": "0.5.16+commit.9c3226ce.Emscripten.clang"
  },
  "schemaVersion": "3.0.22",
  "updatedAt": "2020-07-01T15:20:55.358Z",
  "networkType": "ethereum",
  "devdoc": {
    "methods": {}
  },
  "userdoc": {
    "methods": {}
  }
}